S00C00004C6162332E73726563D6
S11300000C942A000C9436000C9452000C946E004C
S11300100C9434000C9434000C9434000C9434008C
S11300200C9434000C9434000C9434000C9434007C
S11300300C9434000C9434000C9434000C9434006C
S11300400C9434000C9434000C9434000C9434005C
S11300500C94340011241FBECFE5D8E0DEBFCDBF21
S11300600E949B000C94A1000C9400001F920F921C
S11300700FB60F9211242F938F939F9382B38062B4
S113008082BB2FE38DE093E0215080409040E1F764
S113009000C000009F918F912F910F900FBE0F9081
S11300A01F9018951F920F920FB60F9211242F9341
S11300B08F939F9382B3806482BB2FE38DE093E0A0
S11300C0215080409040E1F700C000009F918F9143
S11300D02F910F900FBE0F901F9018951F920F92A3
S11300E00FB60F9211242F938F939F9382B380683E
S11300F082BB2FE38DE093E0215080409040E1F7F4
S113010000C000009F918F912F910F900FBE0F9010
S11301101F90189585B78D6085BF85B78D7F85BF86
S113012084B78F7B84BF8BB7806E8BBF789481B389
S1130130806E81BB08950E948A0082B38F7182BB56
S1090140FCCFF894FFCF90
S9030000FC
